:100000006FA0001613000000130000001300000092
:100010001300000013000000130000001300000094
:100020001300000013000000130000001300000084
:08003000130000007300100032
:100038000000000000000000AC9B0000B09B000026
:1000480000000000A6A00000000000000000000062
:10005800A8A00000AAA00000000000000000000006
:1000680034A90000000000000002000000000000A9
:10007800B0A00000B2A00000B4A00000B6A000002C
:10008800B8A00000BAA00000BCA00000BEA00000FC
:10009800C0A00000C2A00000C4A00000C6A00000CC
:1000A800C8A00000CAA00000CCA00000CEA000009C
:1000B800D0A00000D2A00000D4A00000D6A000006C
:1000C800D8A00000DAA00000DCA00000DEA000003C
:1000D800E0A00000E2A00000E4A00000E6A000000C
:1000E800E8A00000EAA00000ECA00000EEA00000DC
:1000F800F0A00000F2A00000F4A00000F6A00000AC
:10010800F8A00000FAA00000FCA00000FEA000007B
:1001180000A1000002A1000004A1000006A1000047
:1001280008A100000AA100000CA100000EA1000017
:1001380010A1000012A1000014A1000016A10000E7
:1001480018A100001AA100001CA100001EA10000B7
:1001580020A1000022A1000024A1000026A1000087
:1001680028A100002AA100002CA100002EA1000057
:1001780030A1000032A1000034A1000036A1000027
:1001880038A10000509E00003CA100003EA10000E4
:1001980040A1000042A1000044A1000046A10000C7
:1001A80048A100004AA100004CA100004EA1000097
:1001B80050A1000052A1000054A1000056A1000067
:1001C80058A100005AA100005CA100005EA1000037
:1001D8000000000000000000000000000000000017
:1001E8000000000000000000000000000000000007
:0801F8000000000000000000FF
:10020000130181F806C216C41AC61EC822CA26CC1B
:100210002ACE2ED032D236D43AD63ED842DA46DC76
:100220004ADECEC0D2C2D6C4DAC6DEC8E2CAE6CC46
:10023000EACEEED0F2D2F6D4FAD6FED8F3220030CF
:1002400096DA83A2819A23A02200F32510342EC0CF
:100250009305000273A0458003A14187EFB0D0321F
:1002600003A3819A03210300824273901234D65271
:10027000739002309240A2423243C2435244E2445D
:10028000724582551256A2563257C2575258E258FA
:1002900072598649164AA64A364BC64B564CE64C0E
:1002A000764D865D165EA65E365FC65F13018107DA
:1002B0007300203013000000130000001300000042
:1002C00013000000130000001300000013000000E2
:1002D00013000000130000001300000013000000D2
:1002E00013000000130000001300000013000000C2
:1002F00013000000130000001300000013000000B2
:1003000083A24187938202E07390023403A1819A11
:10031000024182403243C2435244E2447245825514
:100320001256A2563257C2575258E258725986494D
:10033000164AA64A364BC64B564CE64C764D865D61
:10034000165EA65E365FC65FD652A102739002307B
:10035000A2421301810782801300000013000000F5
:100360001300000013000000130000001300000041
:100370001300000013000000130000001300000031
:100380001300000013000000130000001300000021
:100390001300000013000000130000001300000011
:1003A0001300000013000000130000001300000001
:1003B00013000000130000001300000013000000F1
:1003C00013000000130000001300000013000000E1
:1003D00013000000130000001300000013000000D1
:1003E00013000000130000001300000013000000C1
:1003F00013000000130000001300000013000000B1
:10040000F322003093F272FF130380781203B3E2F9
:100410006200711523205500130585FA10C12115BE
:10042000232005009302000063870200711523203A
:100430000500FD12D5BF71150CC1828000000000BF
:1004400000000000000000000000000000000000AC
:10045000000000000000000000000000000000009C
:10046000000000000000000000000000000000008C
:10047000000000000000000000000000000000007C
:10048000000000000000000000000000000000006C
:10049000000000000000000000000000000000005C
:1004A000000000000000000000000000000000004C
:1004B000000000000000000000000000000000003C
:1004C000000000000000000000000000000000002C
:1004D000000000000000000000000000000000001C
:1004E000000000000000397101436EC619A0397187
:1004F00041536AC866CA62CC5ECE19A039710153F5
:100500005AD056D252D44ED64AD826DA22DC06DE4B
:1005100033016140828241114AC026C222C406C60C
:100520008282B24D4101024D924C224CB24B4101AC
:10053000024B924A224AB249410102499244224462
:10054000B240410182803D432A876373C30293779F
:10055000F700BDEFADE5937606FF3D8ABA960CC372
:100560004CC30CC74CC74107E36BD7FE11E2828036
:10057000B306C3408A069702000096966780A600DD
:100580002307B700A306B7002306B700A305B700EB
:100590002305B700A304B7002304B700A303B700E3
:1005A0002303B700A302B7002302B700A301B700DB
:1005B0002301B700A300B7002300B700828093F5A2
:1005C000F50F93968500D58D93960501D58D61B76E
:1005D000939627009702000096968682E78086FA17
:1005E0009680C1171D8F3E96E374C3F8A5B7336795
:1005F000B500FD530D8B79E7B7877F7F9387F7F7BA
:1006000010419441B372F6003363F600BE92B3E238
:1006100062006395720C6318D6065041D441B372E0
:10062000F6003363F600BE92B3E262006396720A8C
:10063000631BD60410459445B372F6003363F6008D
:10064000BE92B3E26200639F7208631ED6025045F9
:10065000D445B372F6003363F600BE92B3E2620093
:10066000639872086311D60210499449B372F60078
:100670003363F600BE92B3E26200639172085105E3
:10068000D105E30FD6F61317060193970601631CF5
:10069000F7001357060193D706013305F74093750A
:1006A000F50F91E982804183C1833305F74093754B
:1006B000F50F91E182801377F70F93F7F70F33056A
:1006C000F740828010219421050585056313D6002B
:1006D00075FA3305D640828011059105E314D6FEE4
:1006E000014582802105A105E31ED6FC01458280DB
:1006F0003105B105E318D6FC014582804105C105ED
:10070000E312D6FC01458280EFF2FFE013060018E9
:100710008145138501A4053D37370240A3000740FA
:10072000C146A300D7402300074093069002230050
:10073000D74023010740930670022301D740FD569E
:100740002328D740C16685062328D740232A07409F
:10075000232C074093060004231CD748938601A04E
:10076000232ED740231C074C8946230DD74CA30DBD
:10077000074C9307C74D93062002930500201306EC
:10078000875123900700B4A3B4B32390B7FC91071B
:10079000E399C7FEA30107408347074093E707019A
:1007A0002300F74059BBB7E700E03707200023A438
:1007B000E710828082809C2193F7F70791EB9831B4
:1007C00095476317F700B821B7370240A381E74088
:1007D000B73702400947238DE74CA38D074C828031
:1007E000B8219377F70713567700137707070DC3E0
:1007F000EFF27FD2B96537E500001306D009938583
:10080000C5B51305C5B6EFC020050290014535B347
:10081000B1466147B306D602C8213387E70236974F
:10082000938601A4BA96D8312207498F1377F77FB0
:100830009AA605459DC78A073737024001EA130784
:10084000B74DBA971307000298A382809306874D8D
:10085000BE961307A74DBA972390060013072002F0
:10086000E5B7828093F7F5079D8185E3B7370240AE
:100870009387074089E50D47A38DE70C8280239C71
:10088000070C0D47238DE70C82808A07373702401B
:1008900089E91307B74DBA9798231367370098A3D0
:1008A00082801307A74DC5BF93F7F5079D8199E790
:1008B0008DE1B7370240A38D074C82808A07373716
:1008C000024089E91307B74DBA9798231377470E6B
:1008D00098A382801307A74DBA9798231377470EE2
:1008E00013672700F5B7EFF21FC393F7F5073148F9
:1008F0009D81E148338805033285138601A413875F
:1009000001A4B38817034698429608C256A223133F
:100910000600230506001226050633E6C60219C2A4
:10092000639106103148E148338805030543B388D5
:10093000170346983A9823056800D1CDE5E6469717
:100940006CAB85EBB736024093860640239C060CC1
:10095000B7070020138707261823938707261377E6
:10096000F70F11C32147238DE60C98231347170077
:1009700039A8373702408A079306874DBE9613077A
:10098000A74D23900600BA9798231377C70F98A313
:10099000054565B6E146B386D7023697B7360240BD
:1009A00022AB13868645139727003A9608C203A503
:1009B00006410546B317F600C98F23A8F640938772
:1009C000864DBA979386A64D82A336971C2393F73C
:1009D000C70F1CA375BF8DE7B73702409387074049
:1009E000DE272147C207C18321466386E60036869B
:1009F00063F3D7003E86938501A0EFB0D05A49BF7C
:100A000037370240939627001306C741B29688C233
:100A100003260741C166B397F600D18F2328F7401C
:100A200085BFD5D9131406014180ADF7AA8522AB45
:100A3000138501A0EFB03057B736024093860640C9
:100A4000239C860C31B7EFF21FAD8146014693051A
:100A50000008513DDDB4EFF21FACB734024093847F
:100A60000440BC24411193F7F70F13F72700630CE0
:100A70000712A034BC3409473D8891838D8B9305C0
:100A800000086383E7008145C18D13D77500D9E75E
:100A9000B146614833080403B737024003D5C74065
:100AA000938701A4138601A442054181B306D702AE
:100AB000C296B697F62303D88700AA96C206C182CB
:100AC000B3380501F6A32385170163650501DE230D
:100AD000639AD702B1473307F702E14723140100B5
:100AE0004C8448008545231301002315010036C6B8
:100AF000B307F4023E973A96930700702305060069
:100B00007C824D2E09E4B7370240A38D074CB737DE
:100B1000024009472385E740410105B48946E3982F
:100B2000D7FEB1466146B306D702138501A4938769
:100B300001A43306C402B2963695342589E67221A3
:100B40005621631AD604B1463307D702E14623146F
:100B500001004C8448008545231301002315010042
:100B6000B306D4020A043697BA9723850700239266
:100B70000700FE231307007078823EC6252EB73784
:100B800002409387A74D3E941C2093F7C70F93E72D
:100B900027001CA0ADBF1C41918EC206C1823E96AB
:100BA00001459133ADB713F7070205CBB707002016
:100BB00005472380E726930700607C82938701A086
:100BC0009843DC43854548003EC6231301003AC4E0
:100BD000D52493070002BCA481B713F7170021C3E3
:100BE000B7070020054423808726938701A41307B5
:100BF00000049AA7DAAB930700107C8285458947E9
:100C000048002313010023160100231701003EC4EE
:100C10005524A3810400A38D040CA0A4F5BD918BE1
:100C2000E38C07EE488211448545480023130100F8
:100C300023140100231501002316010023170100CE
:100C4000C0828D2CD9BFB70700009387070085C7E6
:100C5000B707002083C7472E637CF500F1473305B3
:100C6000F502B707002083A7072EAA973E8582804A
:100C70001D8D1375F50F814775F93965930705CB00
:100C8000F5B7EFF25F89AA84884941112E8432C6F4
:100C9000EF00306A0C4037E50000130505CFEFB0D8
:100CA000B03B32461C4885452685829741016FF04E
:100CB000DF88EFF25F862A890144B704002022858D
:100CC000593719EDB96537E500001306301B9385D8
:100CD00045C11305C5B6EFB0303802906FF0FF85FF
:100CE0001C454A850504829783C7442E1374F40F6C
:100CF000E3F787FC138481C0130630058145138513
:100D000081C0EFF05F8441469305F00F1305340076
:100D1000EFF07F83130600029305F00F13053401F3
:100D2000EFF07F8265BFEFF20FFFB707002083C4AB
:100D3000472E2A8901442285393709CD1C49639BF6
:100D400027010C4137E50000130545F8EFB0D0301E
:100D50006FF0AFFE05041374F40FE3FE84FCCDBF07
:100D6000938781C088331375F50F3335A0008280D7
:100D700003A581C0098105898280B707002003C5CA
:100D80001726130515F03335A0008280B707002021
:100D900083C617261307F00F639CE610EFF20FF6D9
:100DA000AA852A8437E500001305C5D6938917263E
:100DB000EFB0902A37E50000930530051305C5D83C
:100DC000EFB0902937E50000D1451305C5DAEFB043
:100DD000B02837E5000093058006130585DCEFB0E9
:100DE000B027130630058145138581C0EFF0AFF5BC
:100DF000938501BC0545EFA06015B707002023A42B
:100E0000A72E1306F01825C1B70700209387070007
:100E1000D043AE238A23938687000147EF909066E4
:100E2000B707002023A6A72E130640190DCDB7073C
:100E300000009387070089CF370500201305452E52
:100E400097000000E7000000B707002023A0A72EAE
:100E50008144B7EA0000370A00202685ED332A894D
:100E600005E11306001AB96537E50000938585C0D2
:100E70001305C5B6EFB0501E029001456FF04FEB61
:100E80000C411385CADE8504EFB0101D832749008D
:100E900093F4F40F829783474A2EE3F097FC228560
:100EA00023808900EFF05F862285F5380545F9B784
:100EB00005458280EFF28FE41C310D4741112A84F1
:100EC0002E896388E70C636FF7000947638AE7029E
:100ED000B707002003A5C72E631F090C81467D5666
:100EE000A2856DA01147638AE7021547E392E7FEEA
:100EF000938781C09843058B11EF41016FF04FE359
:100F0000938781C09823799B98A39823759B98A376
:100F1000A380070098236D9B09A8938781C09843FD
:100F2000058B61DF98231367470098A355B7268583
:100F3000193B11C51C4D81C74C4008208297850480
:100F400093F4F40F83C7492EE3F397FE938781C090
:100F500098430983058B55D3982323130100231449
:100F600001006D9B98A31C2023150100231601008E
:100F70005C829547DC8223170100B707002003A598
:100F8000C72E631C090081467D564C00EF9090618E
:100F9000ADB78144B709002075B781460A864C0079
:100FA00002C0EFA000068247A9DBB7E700E01167A7
:100FB00023A0E72099B781465000A28502C2EFA086
:100FC00040049247D5B7EFF20FD5BC2193F707073E
:100FD0008DC3B96537E500001306F04A938505C94E
:100FE0001305C5B6EFB050070290014422856FF09B
:100FF000CFD4B707002003C91726AE8483C5A1C08C
:101000002685EF10A0152A8411EDB96537E500009B
:101010001306004B938505C91305C5B6EFB0D00381
:101020000290E9B7A6854A85EFF08FFB2A847DBF41
:10103000EFF2CFCC4111AA892E840149154A854A85
:101040006344C90085442DA00C30639645012C30C3
:101050008D896383D502B96537E5000013067048B2
:101060009385C5C71305C5B6EFB0007F02908144D4
:10107000268541016FF0CFCBA2854E853EC63AC48E
:1010800036C232C08937AA84024692462247B24706
:1010900011EDB96537E50000130680489385C5C793
:1010A0001305C5B6EFB0407B0290D9B72C2013D5FD
:1010B0007500631755018CA30C2005092E9449B7C0
:1010C0000CA3DDBFEFF28FC337E500004111AE8402
:1010D000B7070020B2891305C5FC368603C9172659
:1010E00036C613F4F407EFB0207793171400138477
:1010F00081C03E9413D774003A9483473403B246B8
:10110000858B95C3B96537E500001306B04D93850F
:1011100005CA1305C5B6EFB0207402908144268538
:1011200041016FF0EFC083473403A6854E8693E7F5
:101130001700A309F4024A85EFF0EFFAAA8465F1DB
:101140008347340337E50000130505FFF99BA30926
:10115000F40283473403ED9BA309F402EFB0B0031C
:10116000029075BF93D7750013F7F50706079385AF
:1011700081C0BA95BE9503C5350305898280EFF21B
:101180008FB913F4F50713171400138481C03A9430
:1011900093D675003694034734030583058B05EF1A
:1011A000B707002003C9172637E50000130585FBA4
:1011B000AE84EFB0606AA6854A85EFF0AFEA834758
:1011C000340393E72700A309F4028347340393E72A
:1011D0001700A309F4026FF04FB6EFF2CFB313F488
:1011E000F50713171400138481C03A9493D6750041
:1011F0003694034734030583058B15CBB7070020CE
:1012000003C9172637E500001305C5F9AE84EFB012
:10121000A064A6854A85EFF02FE983473403F59B48
:10122000A309F40283473403F99BA309F4026FF086
:10123000CFB0EFF24FAB0111AA8AEF0070716308D3
:10124000056C9307803E3387FA02B70B00201384A6
:1012500081C0370C0020B357F7023AC43EC2FD5795
:1012600003A5CB2E7D56638CFA00014663890A00E4
:1012700022479307703E124663E3E70005464C0899
:10128000EF90B06A630505680347510199476318F9
:10129000F70037E5000013054517EFB0C06F83472F
:1012A00051012147636EF70213972700B9679387AF
:1012B000C7CCBA978C4337E50000130545E0EFB083
:1012C000A059834751011D47FD1793F7F70F63613D
:1012D000F76E39678A07130747B8BA979C43828726
:1012E000B7E50000938585DFF9B7E2473967130753
:1012F00007188A07BA978C4337E50000130505E104
:10130000EFB0805503454101EFF0BF9AEF00D000E8
:10131000E2473CA0B70700209387C72E8843EFA081
:10132000A01815FDEDA337E5000013054517EFB034
:10133000806603454101EFF0DF97EF00E07DB7A73E
:1013400000009387A7E4F9D7EF803030E1B7440875
:101350001309C101B7E90000CC20138509E2850417
:10136000EFB0804FE31A99FE37E9000013054917E3
:10137000EFB060621C2001458344410193E71700F0
:101380001CA083473403F99BA309F4028347340369
:10139000ED9BA309F40283474403F99B230AF4025B
:1013A00083474403ED9B230AF402EF0080788347D0
:1013B0008101130700061306E02693F707066380F2
:1013C000E718130700046394E7023705000093074A
:1013D0000500D9CB13050500EF00A0753008854541
:1013E000268597000000E70000000DF5B5A89DEBED
:1013F0008347910131476367F70239671307C718BD
:101400008A07BA978C4337E50000130585E2EFB0F1
:10141000A0440347910199476306F7001305491754
:10142000EFB060576249054A1379F901630B4939F6
:10143000630709008947630CF93C029035A0834794
:1014400081011307000293F707066391E7048347BE
:10145000C1013D47636AF700A297A833EFF0AFFEE2
:10146000AA8530086314053E37E500001305C5F171
:10147000EFB06052034541018145EFF0AFBE034537
:10148000410193050008EFF0EFBD69B5DDF7834733
:1014900091012547E363F7FA39678A07130747BACB
:1014A000BA979C4382872808EF0000698345A10111
:1014B0002685EFF04FD91C2093E727001CA099BD8B
:1014C0001C302309F1008546130621012C082685CE
:1014D000512B89B58349A1011C306386F90A1C3060
:1014E00093F7F70F95C30C3037E50000130505E3BC
:1014F000EFB080362685EFF0EFAB03492400268558
:10150000EFF02FFB23012401638F09061385F9FFF8
:101510001375F50FEF80102A09C518318947630448
:10152000F7021306A036B96537E50000938505C5B7
:101530001305C5B6EFB0403202901306202CB965F2
:10154000938585C349A27831130D950093571700F1
:1015500093F607011C2005831377070293F7F70C16
:10156000D58FD98F1CA00349350038212209336952
:10157000E9002A99636F2D01B7A70000938787E4DC
:1015800099C3EF80700CA30034012C0826857129C3
:1015900051B383461D002D47854C6397E6000347F2
:1015A0000D00834C3D003A9D83461D001147638525
:1015B000E6001306503885BF330AA941420A135A80
:1015C0000A01814D6E85EFF00FE801E51306E03862
:1015D00099BF0328C5002AC65286EA852685029847
:1015E000A1472A8B63F2A706B246636FAA048C4216
:1015F000B7E70000138587E6EFB0002601466311C8
:101600009603EE86EA855A861385B1C1EF00703FD6
:1016100083464C2E5A9DE3FFB6F51306C03B21B717
:1016200083462D009307F00FB29693F6F60FA2961D
:10163000AC326385F5001306D03AF5B50506A381F3
:10164000B6011376F60F65BF83464C2E13871D0037
:10165000937DF70FE3F8B6F7C9B70359A1013947EE
:10166000935689009387F6FF93F7F70F1379F90FD5
:10167000E36CF7DE39678A071307C7BCBA979C4348
:10168000828737E50000130585E7EFB0C030EF80B3
:10169000F011C9462A8699A037E50000130545E8F0
:1016A000EFB0602FB707000093870700E38E07DADB
:1016B00097000000E70000002A8609ED1306D03EDF
:1016C000B965938545C637E500001305C5B6EFB08B
:1016D000A018A5B33C313421A207DD8E2C08268545
:1016E000512621B389476390F60237E50000CA8589
:1016F0001305C5E8EFB040164A85EF80B00B15E53D
:101700001306704075BF37E50000130545EAEFB0DA
:101710008028B707000093870700E38707D44A852E
:1017200097000000E7000000D9BF3C313421A20738
:10173000DD8E8DB737E50000CA85130505ECEFB0E7
:10174000A011AC864A85EF8070082A86E30E05D08A
:10175000142169B737E50000130505EDEFB0A023AC
:10176000B707000093870700E38007D097000000C9
:10177000E7000000D9BFB8858547E317F7CE37E506
:101780000000130545EEEFB000211C2093E7870011
:101790001CA0E5BBB8858547E318F7CC37E500000A
:1017A000130505F0EFB0201F1C20DD9BD5B71C20D2
:1017B00013D757008983058B898BD98FFC81894684
:1017C00021B38347C1013D47E360F7CAA297A8331D
:1017D000EFF06FC7AA85E30905C830082685EFF04A
:1017E0004FCAE31905B28347810193F70706E39DCA
:1017F00007C683479101D917E368F9C61D2E034731
:101800009101A947E313F7D8230901006DB9834576
:10181000C10113F7050713F9F50793D7750001C741
:101820001306203229BB060922993E990345390146
:101830002EC6EFF04FC183478101AA89B24593F7C5
:10184000070689CBE30205C23008AA852685EFF09A
:101850004FC361BE834791016386470195CB0D4716
:10186000E39DE7BCB88519E7054726856397E7023E
:10187000EFF0BF96E38009AA3008CE852685EFF009
:101880004FC001457D245C58858BE39507A8F5B9C9
:10189000834739038583858B15B7EFF05F8ED9BFFA
:1018A00083448101724637E50000A6851305C5F221
:1018B000EFA0907A13F9F4079317190013D7740067
:1018C000A297BA9703C73703799BA389E70203C797
:1018D00037036D9BA389E702631A0900F2460346AA
:1018E000910103454101A685852C2DB4A83BEFF05D
:1018F0008FB52A8905E1B96537E500001306902206
:10190000938585C21305C5B6EFA0107502900561D9
:101910006FE03FC10C4137E50000130585F4EFA0EF
:10192000B07383274901F246034691010345410103
:10193000A6858297C5B21C40858B95C70C4037E5BC
:101940000000130505F68D818589EFA0F070B7A71B
:1019500000009387C7E4E38F079A08400D8105894B
:10196000EF80C04E45BA37E50000130585F7EFB0AC
:1019700080024DB21C40858BFDD737E50000130572
:101980004517EFB04001B7A700009387E7E4E38372
:101990000798EF80C04BBDBA37E500001305451727
:1019A000EFA0707FE247E3870796724582979DB26A
:1019B00002908DB2EFE23FB61387C1D14E27722756
:1019C000AA84130500043387C540BA8642074183C1
:1019D00041119387C1D16374E50093060004038726
:1019E0000700C206C182635607026389C5028C479D
:1019F0003686138501D336C6EFA0F05AB24693055A
:101A00000008138601D32685EFF0CFEB41016FE08C
:101A1000DFB26398C50081450146F5B7930500081C
:101A2000E5BF8145138601D3F9BFEFE2DFAEAA849B
:101A30001384C1D121461385C1D12E89EFA0B056A0
:101A400083070900232404002326040093050008CB
:101A500063D307008145814601462685EFF08FE676
:101A60006FE0BFADEFE29FA94111138AC1D1B289E6
:101A70002A8921461385C1D1AE8436C6EFA0B05263
:101A800023243A0123170A00FC30F820B246A207AB
:101A9000D98F1384C1D1368763E3F6003E8793164E
:101AA00007015AA4C182A1CB85C663930902B96517
:101AB00037E5000013063007938585FF1305C5B68B
:101AC000EFA0905902900144228541016FE05FA68A
:101AD0004A85CD352A8419C10544FDB71306900700
:101AE000B96537E50000938585FF1305C5B6EFA0FE
:101AF000B0560290D1BF83870400814563C40700BC
:101B000093050008814601464A85EFF0AFDB2A8441
:101B100061F51306E007E9B79387C1D123A0070059
:101B200023A2070023A4070023A6070023A8070079
:101B3000828023A6A1D28280EFE2FF9D1384C1D1CF
:101B4000AA8521461385C1D1EFA0F04523240400C6
:101B5000232604006FE07F9EEFE25F9A83A7C1D146
:101B60009D81AA899D83858B368A1384C1D1638622
:101B7000B7048DC2B96537E500001306B00A938536
:101B8000C5001305C5B6EFA0304D029081442685EF
:101B90006FE01F9AB70700009387677B89C793851B
:101BA000C1D1EFE05FC11C4899E38544CDB71386EE
:101BB000C1D18D454E858297CDBF8307040063CF89
:101BC00007000844814461D53686938501D3EFA090
:101BD000903D0946D285138501D38D2D7E2418446E
:101BE000D2975297C20718C47A20C1837EA4630695
:101BF000F7009307F00363E34707084815E98307F5
:101C00000400814563D90704014681464E85EFF003
:101C10006FCBAA841306800D49F9B96537E500003A
:101C20009385C5001305C5B6EFA01043029085B794
:101C3000EFF06F8F1C481386C1D189454E8582977E
:101C40005DFD4E858145EFE0FFC1930500084E859F
:101C5000EFE05FC199BF930500087DB74E85993BC2
:101C6000AA8421F51306300E4DBFEFE2DF8A83C54B
:101C700041D793062064138641DF0145EFF08FC4FE
:101C80006FE0BF8BEFE23F894111138401D72EC46F
:101C90002C202AC60145EFF0EFCC11E5A2463246D2
:101CA0002C20EFF02FC241016FE03F89938701D7CD
:101CB00023A0070023A2070023A407008280EFE2ED
:101CC0009F85ED376FE07F87DC311307000E63924D
:101CD000E708F82185476319F708F8318D47631540
:101CE000F7088147EFE29F81138701D73823B28934
:101CF0002A8A138901D71306D0091DEFA302F90020
:101D0000BC21A544130740022300F90080212E9432
:101D10001C306393E70663FB990418309147130660
:101D2000F00B631BF70003475900A94611465C30CE
:101D30006387D7061306400CB96537E50000938525
:101D400045021305C5B6EFA03031029001456FE0A2
:101D50002FFE0947639AE700F82199476316F700B9
:101D6000FC3193B71700BDFF014582801C20BE9453
:101D7000C204C1803E9469BF1547E390E7FAA2858B
:101D80005285EFF04FA41306200B5DD53C202301B4
:101D9000F9001C20BE94C204C1803E94BDBF1C202B
:101DA000BE94C2043E94C1801C3001CF6388C7003A
:101DB00015476389E7021306B00CBDBFE3F999F636
:101DC000DDBF1547E399E7FE930739001307490084
:101DD00089460946A2855285EFF08FA519E91306B9
:101DE000500D99BF232489001385E40042054181E9
:101DF000B9BFEF705055B707002005472388E72E7D
:101E0000AD35DDB7EFE28FEF854732846390F5168D
:101E10000349060013595900137939006308090072
:101E20006307B90A814426856FE08FF01C32294789
:101E30006389E7042D47E397E7FE83C701D7542260
:101E4000138701D785078144E39FD7FC3C22E3EC4D
:101E5000F5FC4433E9D81CB3AA89ADC73C335423FD
:101E6000D58FADE30C478DED13064011B96537E50D
:101E70000000938505031305C5B6EFA0F01D029081
:101E800055B7138601D71C22582081448507E39C4F
:101E9000E7F885460506A285EFF0DFBC854461B70B
:101EA00093073700094611078946EFF06F9813062C
:101EB00050114DDDEF703049B707002005472388EA
:101EC000E72E6533A2854E85EFF03FB6A9BF5C32A1
:101ED000938901D7542203C70900A207D58F8144F3
:101EE000E313F7F483C45900B1C0183293073004E8
:101EF000E31BF7F2A28581460146EFF0BFB6938758
:101F0000C1D723A00700130710FA98A303C709003D
:101F100023A20700A1451385C1D723A4070023A648
:101F2000070023912701DAA3B13BF5BD8307060023
:101F300063DB07029387C1D7D4439307800763FF0E
:101F4000D700B96537E50000130600149385050333
:101F50001305C5B6EFA050100290F1B5C206C182BC
:101F60001386C1D70DBF93068007DDBF894785441F
:101F7000E39BF5EA1C221307000293F7070EE39494
:101F8000E7EA5C30138701D750221423A207D18FD0
:101F9000E39BF6E84433E39804E87C306C20A20726
:101FA000DD8D1385C1D7EF00D01DCDBDEFE2AFD6DB
:101FB000938701D7DC23AE843689138401D76392DB
:101FC000B7045830938741DF4DE31307B0026372C3
:101FD000D70A94430547639EE608D843636BE90834
:101FE0009847CC47B306B700A1066364D908130528
:101FF00087003E95C205C181EF70702D19E1EFF0A9
:10200000DFC63C3063939702B70700209387072F02
:10201000630309061377F91F39EF81460146A68548
:10202000014523800700EFF0EF895C3085CF3C202D
:10203000639A9702A1476317F9020D679387C1D787
:10204000130717AA9AA33777940098C7D8C7182000
:1020500023910700C1451385C1D723932701DAA334
:10206000EFF05FC205456FE04FCDB685138541DFC8
:1020700051B78145E5BF054798A345BFB707002085
:1020800003C5072F8280EFE26FC7370A002083471E
:102090000A2FBDC3938701D7DC33130A0A2F138994
:1020A00001D7014499E31304C002938481432E862F
:1020B000AA8533858400EF703025834759002A9420
:1020C0004204418085E37146814513850401EFE0B8
:1020D0008FC785479CC0930740029CC4930744FD6B
:1020E000C0C0DCC483453900A28613868143014504
:1020F00023000A00EFE01FFD6FE08FC3EFE20FC087
:10210000AA8937E500001305C5052E890144EFA013
:10211000A074B387890083840700EFA0E06126954F
:102120008307150093F7770999E39304E002268566
:10213000EFA08076050493170401C183E3EB27FD2C
:1021400037E5000013050506EFA0F0046FE04FBE71
:10215000EFE26FBCEFE07FC26FE02FBEEFE2AFBBFC
:1021600040315C212E8922045D8C2C21AA841374B9
:10217000F47F37E50000228613050515EFA0C06D3A
:10218000BC3009478D8B6385E7026360F70685469F
:102190000145639DD700930700406304E90093075E
:1021A000F03F05451306300A63ED87006FE0EFB896
:1021B0006315F9029307002005451306B00AE307EB
:1021C000F4FEB96537E50000938585041305C5B6AF
:1021D000EFA0806802900145D1BF93070004054538
:1021E0001306F00AE3F487FCE9BF93070040630499
:1021F000E900930700040545E3FA87FA1306600B2C
:10220000C9B7EFE2AFAF4111AA892E843389C50067
:10221000154AB7EA00006365240141016FE04FB140
:102220001C3063924703242036861385CA12A68584
:1022300036C6EFA0606293F5F4078605B246CE95E8
:102240009D80A69594A11C203E94F1B7EFE22FAAA1
:10225000011119C1AE8491E937E500001305051796
:10226000EFA0607305616FE00FACB737305893870C
:1022700057023ECCB70A001093072003AA89B28BFD
:10228000230E0100230DF100330BB5002A84FD1A43
:1022900037EC0000330A344163108B04BD88C1451C
:1022A00085C8C14793F5F40F0149B38497401305DE
:1022B00000022EC6EFA0405E13050002EFA0C05D35
:1022C00013050002EFA0405D0509B245E36199FEE8
:1022D0003305B440253579B702CA9377FA0085E310
:1022E00063060A00C145130504FF093D0149631552
:1022F0007903B3755A0113058C17EFA0E0551C2024
:10230000130500020504230AF100EFA0E058D245AE
:102310002808EFA06054BDBF130500020509EFA017
:10232000A0571379F90FE1B7EFE24F9DB7070020EF
:1023300083A9472F37190020814403AA09011309F3
:10234000894F63C64401014422856FE06F9E83A7D5
:1023500049011394440019463E94CA852285EFA092
:1023600040427DD18504F1BF01479307170063C444
:10237000B700814721A8BA872A9718333E970907E3
:10238000E3C9E5FEAA979423E391C6FE3E858280C9
:10239000EFE2CF96368A9306500314A193066003AA
:1023A000011134B1054991462A842CA154A1A300FE
:1023B00025016C08B2891505114642C43AC646C2C9
:1023C0003ECEEFA0403E3247930730031CB49357F4
:1023D00087013CB492489357074191445CA49357BA
:1023E000874024A45CB478A4A307240104A8114660
:1023F0006C081305140146CEEFA0E03A2248631C96
:10240000080493045401638209024E85EFA06059C9
:10241000BD479CA09387240088B02A892A86CE8550
:102420003E85EFA04038B3042501630E0A009947AA
:102430009CA091479CB01385240011466C0852CE95
:102440009904EFA04036FD579CA013851400018D20
:1024500005616FE0EF8D8D4764A85CB811466C088C
:102460001305740142CE9304B401EFA0C03361BFE1
:10247000EFE26F8768364111328BAE8B3A8CEF30CA
:1024800030210356AB00371A002093074020AA8A58
:102490001304CA4D1305CA4D63F4C7001306402048
:1024A00083254B00371900201309C95CEFA0A02F2A
:1024B00013065003930530111305040F753519C920
:1024C0003C210547638BE7000D47638EE70A5A8579
:1024D000EF30D03341016FE0CF84B935B70700202A
:1024E000AA8483A9472F15E503AD0901814CB96D75
:1024F000E3DFACFD83A7490193944C001946BE94D9
:10250000A68513854DB5EFA0C02719C1850CCDB7A1
:10251000DDDC89471CA09C442324040013063011F1
:102520001CC883A7418081454A852326F40EEFE02D
:102530008F8183A88A0003A8090083A74A00D84492
:1025400083A6890003A6C90089454A8591351306EB
:1025500020189305402013056003EF3090352A843E
:102560003DD54841130640209305CA4DEFA0A02356
:10257000E28613868184A2855E85EF70002E228517
:10258000EF30D028A9B713062003930530114A85F0
:10259000E13B15DD18319147E31BF7F29304250069
:1025A000613309C519468145EFD0FFF91146A6856B
:1025B0006800EFA0401FB707002083AC472F3246CA
:1025C000014783A60C01E354D7F083A74C0193196C
:1025D0004700BE9983A789006384C7000507E5B754
:1025E00039651946CE85130545B5EFA08019E3106E
:1025F00005EEA685114613050401EFA0C01A894710
:102600001CA083A741801306301181452326F40EB8
:10261000232404004A85EFD01FF383A88A0003A86F
:102620000C0083A74A0003A7C90083A68C0003A659
:10263000CC0095454A85EFF0BFD5130620189305C9
:10264000402013056003EF30D026AA84E30105E89B
:1026500019469305C4014E85EFA0E014C840130647
:1026600040209305CA4DEFA00014E28613868184B2
:10267000A6855E85EF70601E268519B7EFD2BFE98B
:10268000370400201304842F084009C5EF70E02BA5
:10269000232004006FD07FEAEFD2FFE72A893704B6
:1026A0000020EF60905ED93FEF70202E1304842F3E
:1026B00008C0FD5411C90356490093854184EF6059
:1026C0007077AA8409C55D3F26856FD01FE7084053
:1026D000B7250000014693850547EF704025B707F1
:1026E000002023AA272FCDB7EFD2FFDFBA8A3A26E0
:1026F000B1474111328963F8E718444283872400C7
:1027000063C30718DC30C820AE89A2075D8D368A06
:10271000EF20706385476318F5160354A900B104D0
:10272000371C00205114A685814C8147130C0C6E78
:10273000930DE0021307F0076357801403CB0500E5
:10274000938B15007D14630C0B0263870C00B3069A
:10275000FC002380B601850763476413330DFB003B
:102760006343A713DE853305FC005A86EFA0A00360
:10277000B3856B0133046441850CEA8765BF0D475F
:1027800063538710371500201307056EBA9723800F
:10279000070083C70B0095055C8683C71B00DC869A
:1027A0003C862310F70883C7E5FF5C8683C7F5FFE7
:1027B000B3849540DC863C862311F70863C5040C7E
:1027C000B707002083A707306C001305056E8297BA
:1027D0005DC99385C401C20513062018C181130584
:1027E0006003EF30100D938BC4002A8B49CD8325F5
:1027F000490048415E86EF90107B83244B000545DD
:10280000BC2093E707F8BCA0EF20F053E8A021819B
:10281000E8B003244B00316531055E94EF20B052DF
:1028200008A0218108B00545EF20F05128A02181A2
:1028300028B00545EF20305148A0218148B013054C
:102840000002EF2030519357850068A07CB0935769
:10285000050161811CA408B41145EF20D04E1C86EF
:1028600028A421815CA49C8628B4D6865CB41C87ED
:102870005286DA857CA49C874E857CB4EF60F07D1F
:102880005A85EF30A0784A85EF30407841016FD00B
:102890005FC9EFD25FC8370400201304C42F08407B
:1028A00009C5EF70800A232004006FD01FC9EFD242
:1028B0009FC64111AA842EC6328937040020EF60DA
:1028C000D03CC13FEF70600C1304C42F08C015C981
:1028D000B2452E86A685EF60F055AA8411C5553FF6
:1028E000268541016FD07FC50840B725000001460D
:1028F0009385856EEF70A003B707002023A02731D2
:10290000C5B7FD54F1BFEFD21FC1A145138581802A
:10291000EFF04FB76FD07FC2EFD2FFBFB7070020F5
:1029200083A7473037070080110798C37147D8C382
:102930001147411198CB4147C8C72EC6D8CB6C0070
:10294000114613858701EF901066753F41016FD0E6
:10295000DFBEEFD25FBCB707002083A74730370741
:102960000080110798C313078601D8C34147C8C721
:1029700090CBD8CB13858701EF90F06269376FD089
:10298000DFBBB707002023A2A7301C411947F91766
:102990006361F724EFD23FB839678A071307071C32
:1029A000BA979C438287B707008089071CC19307A9
:1029B00040035CC185471CC91CCD1CD193076061D5
:1029C000232A050023260500232E05005CD123249D
:1029D0000502232605022328050235373DAA5C455A
:1029E0004167930667116386D71263EBF608930677
:1029F000A7106384D70863E4F60493063710638B4B
:102A0000D70A63E0F6029306171013072710639F97
:102A1000D70EB965130680059385C51D0145153F81
:102A2000EDA8930667106389D710930677101307F4
:102A30004710639DD70CF5659385054CE1A8930677
:102A4000E7106386D70E63EEF6001307C710638C9A
:102A5000E70C6374F702B7E5000021469385452330
:102A600075BF930637116387D704930647116383B5
:102A7000D70413071711639BE7049305A05E59A8B9
:102A8000B706010113861610638BC7086366F60448
:102A9000B706020013862610638EC700636EF60029
:102AA0001306B7216388C7009386161013072720E3
:102AB000639ED7048145B9A813874610E38CE7FECF
:102AC000E3EAE7FE93865610E386D7FE370500C09B
:102AD000014681450505A1B7138756106381E706B6
:102AE000636AF70093863610638BD70463F9F602A6
:102AF00085450DA03707020193062710E38CD7FA0E
:102B000093063710E388D7FA13071710E384E7FA20
:102B100075BF85650145EFF03FE06FD01FA21946F4
:102B200093850186E5BDB7050001FD15E5B7B7073B
:102B3000002083A58730F9BF9305C05DE1BF37054D
:102B400000C081451305B50BF9B7B707008095079D
:102B500058451CC1C1475CC1C16723260500938647
:102B60002711E30CD7E663E4E6029386E710938728
:102B7000F7106316D7025C499305850037050020DE
:102B80001146BE9513058530EF90F041B9B5938796
:102B9000B721E304F7E4B707010193873710E30E89
:102BA000F7E2B70700C085075CC505BDB707008021
:102BB00099071CC1C1475CC1232405008547EDB7B7
:102BC000B7070080A1071CC1C1475CC123260500CF
:102BD00029B58280EFD23F943A25B9472A8463F71A
:102BE000E7047C352E8989E783C7450385077CB5D3
:102BF000484044355C25A204DD8C1C2113F71700E6
:102C000019CF05476398E7021C3191EB38219307F0
:102C1000E0056316F7005C3493E707015CB4A14755
:102C20006384F402930780606380F4042285EF30AC
:102C3000E03D05A8194693850183EF90903465F136
:102C40005C3493E78700D9BF83471903A18BF9DF71
:102C5000B9452285EF30C03471F9CA852285EF105D
:102C6000304E01456FD07F8D83471903A18BDDDF87
:102C7000B9452285EF30C03255F9CA852285EF105B
:102C8000804EC5B7EFD29F874111AA843A852E891D
:102C9000B28936C6EF20300B2A84B9454A85EF3019
:102CA000402F39E183274900B2461946C0A7218049
:102CB000C0B7B6853E85EF90102F1946CE85190511
:102CC000EF90702E83C7040319446388870037E5AB
:102CD00000001305C523EF9030389C4CCA8526852B
:102CE000829741016FD0DF847955E5BF5C316387FE
:102CF000B7004CB123030500231405008280EFD2F6
:102D00009F81930425009307400441112A8463FCAA
:102D1000970037E500001305454432C62EC4EF90F6
:102D2000B0333246A245B3878500050442041357E9
:102D30008600418098A32E9410A013950401418130
:102D400041016FD08FFFEFD20FFD93872600AA9726
:102D50001307400441112A84637EF70037E5000021
:102D60001305053736C632C42EC2EF90F02EB24698
:102D700022469245B387850090A393071400C207AB
:102D8000C183BE951305240094A1420541814101F0
:102D90006FD0AFFAEFD22FF89307300441112A8495
:102DA00063FCA70037E500001305453B32C62EC47F
:102DB000EF90902A3246A245A2951305140090A1E7
:102DC0004205418141016FD04FF7EFD2CFF4930418
:102DD00045009307400441112A8463FC970037E5BE
:102DE00000001305854032C62EC4EF90F02632460F
:102DF000A245B38785001357860198A39307140053
:102E0000C207C183AE971357060198A39307240006
:102E1000C2070D04C1834204AE9713578600418058
:102E200098A32E9410A013950401418141016FD005
:102E3000CFF0EFD24FEE93071500C2073387A500FE
:102E4000C183FD5614A3BE9513073004637BF700BE
:102E50009385070FC205C1813285EF30A0386FD04E
:102E6000CFED8507C20723800500C1838505F9BF23
:102E7000EFD26FEA0051AA84A1452285EFF01FE747
:102E800001469305C4012685EF1060577C20130787
:102E9000F00F6384E70085077CA085471EA46FD0F0
:102EA000CFE9EFD24FE7411111E937E500001305F3
:102EB0000527EF90701A41016FD02FE80051AA84C6
:102EC00011E437E500001305C528E5B71C542319A4
:102ED00004007D576380E702F90737073C0063FC75
:102EE000E7081307C003B3D7E7021397070141832D
:102EF000D1C75AA85C547D576382E702F9073707A8
:102F00003C0063F0E7081307C003B3D7E702139749
:102F100007014183B5CB3AA43E247EA41C587D57BB
:102F20006382E702F90737073C0063F2E7061307FD
:102F3000C003B3D7E702139707014183A1CF5AA477
:102F40005E241EA85E243A246365F70099C3231506
:102F500004007C30B9C31C503EC45C502285A94596
:102F60003EC6EFF0BFD8740030009305C40126853B
:102F7000EF20F05A89B741677D17A5BF85475EA846
:102F800095BF41677D1741BF85473EA471B7416733
:102F90007D1775B785475EA465B75C2C13978701CD
:102FA0006187634507009307F00F7DB71307F00BA8
:102FB0006376F700B7070001FD1779BFC167EDBF62
:102FC000EFD26FD5B704002083C704319384043156
:102FD000A1EF370400208327C4301304C43099C7FD
:102FE00037E5000013058534EF901007EF60F01906
:102FF00008C07D5715CD1835130640041367070226
:1030000018B593854184EF60E062084013063004F0
:1030100093854184EF60500B0840B73500000146AE
:1030200093854561EF60B0109C20014785079CA007
:103030003A856FD08FD0EFD20FCEB70400209387A0
:103040004431BC3323200502232205022A849384C1
:10305000443191C7B717002083A707771CD5DC2020
:10306000B1CFB717002083A747775CD4DC30B1CB52
:10307000B717002083A787771CD898399C29220787
:103080005D8FBC29C2075D8FBC39E207D98F5CCC4C
:10309000FC2095CFB717002003A5C777EF20804B02
:1030A000854708D07CB0FC3081CBB717002003A542
:1030B0000778EF20204A48D06FD02FC81C54858352
:1030C0006DB718549D47B387E7028D8375B7A30387
:1030D0000400D1BFEFD28FC22A8921CE32852E8A39
:1030E000B284EF90100C2A8429C593091004B38987
:1030F000294163F8A90037E500001305C53EEF90AC
:10310000A07563F389004E849307F00F63F887007E
:1031100037E500001305C53EEF9000749376F40F79
:103120004A853146D285EFF01FC22A8926946395DD
:1031300084004A856FD0CFBF850403C6F4FF4A855B
:10314000D285EFF03FC52A89DDB7EFD2CFBC370477
:103150000020834704311304043199E737E5000068
:1031600013054532EF90406F1C20FD1793F7F70FC2
:103170001CA091EB370400201304C4300840EF601A
:10318000C07C232004006FD04FBBEFD22FB719E9CA
:1031900037E500001305452AEF90006C01494A8588
:1031A0006FD00FB92E8A91E537E500001305452C45
:1031B000E5B7AA84B28993054013130600281305C6
:1031C0006003B68AEF20F06E2A8971D93A259307F9
:1031D000301363E8E70037E500001305452EEF9054
:1031E000A0678D476396F90083475A00639F3701B4
:1031F00083476A00370400201304C43181E7EF607D
:10320000704608C01C402320FA000324490013061E
:10321000401381452285EFD00FB385471CA01CB019
:1032200083C704033CA003250A00EF20A032935774
:10323000850048A05CB09357050161817CA068B00F
:1032400091476383F902938799FF93F7F70F054737
:10325000637CF7008D476391F90283475A00F117A9
:1032600093F7F70F636AF700DC205CA4DC305CB4F2
:10327000FC207CA4FC307CB49387A4021307C40117
:1032800093840403942385070507A30FD7FEE39BCC
:10329000F4FE930730062306F40E130720F8A30765
:1032A000F40E93075003A306E40E2308F40E13074D
:1032B00030058547A308F40E2307E40E2309340FD5
:1032C0008D472390FA00E1BDEFD24FA30451411185
:1032D000AA898D452685EFF07FA19306E1000D4672
:1032E000A6854E85EFF07FEA7D5445C540412A8989
:1032F00028871304040F894613069003A285EFF074
:103300009FA413060024A2856887EFF05F9F914673
:1033100013062003A2856887EFF0FFA22A8A688738
:10332000C84C938A0184EF20E0222A86A285528528
:10333000EFF0BFA98D4613067003A2856887EFF0F2
:103340009FA06887014A0D4BB3874A0190232887C5
:10335000A285050AEFF01FA46887E3176AFF03A69A
:103360004902A285EFF01FD7A2854A866887EFF051
:103370005FACB707002003A5C7304E879306300423
:1033800013868184CA85EF6080462A844A85EF20AF
:10339000F047FC201307F00F6384E7008507FCA0CB
:1033A000FC2025476363F7021307803EB387E702DB
:1033B000C207C1831307401F9387371FB3C7E702B4
:1033C00022859EA441016FD0AF96896793870771CC
:1033D000D5B7EFD2AF92411101ED37E500001305EB
:1033E0004549EF9060474154228541016FD04F9489
:1033F00004512A8989E837E500001305054BEF9051
:10340000A0456954D5B785452685EFF03F8E9306D4
:10341000E1000D46A6854A85EFF03FD7AA897D5485
:103420006307050C4041288789461304040F1306DF
:103430009003A285EFF03F9103568902A285688729
:10344000EFF0FF8B914613062003A2856887EFF00B
:103450009F8F2A8A6887C84C938A0184EF20800F47
:103460002A86A2855285EFF05F9691461306600387
:10347000A2856887EFF03F8D2A8A6887884C0D4BBC
:10348000EF20400D2A86A2855285EFF01F948D46CD
:1034900013067003A2856887EFF0FF8A6887014AE8
:1034A000B3874A0190232887A285050AEFF09F8EF3
:1034B0006887E3176AFF03264902A285EFF09FC1E0
:1034C000A2854E866887EFF0DF963705002003253A
:1034D000C530938741844A879306300413868184DC
:1034E000CE85EF6020202A844E85EF203032FC20EC
:1034F0001307F00F6384E7008507FCA0F8209547C9
:1035000063E3E7028547B397E7001307803EB3877D
:10351000E702C207C1839387371F1307401FB3C752
:10352000E7029EA4D1B5BD67938707A6EDB7EFC2AA
:10353000FFFC00514111AA8999452285232E0400E0
:10354000EFF0CFFA9306E1000546A2854E85EFF035
:10355000DFC335CD44412A8928879384040F8946E7
:1035600013069003A685EFF00FFE03D68902A68509
:103570006887EFF0CFF88D4613067003A68568873D
:10358000EFF06FFC6887014A938A01840D4BB38783
:103590004A0190232887A685050AEFF0AFFF6887C8
:1035A000E3176AFF4A86A685EFF0BF88370500203B
:1035B0000325C530938741844E87930630041386D4
:1035C0008184CA85EF6000124A85EF2030247C2078
:1035D0001307F00F6384E70085077CA078209547E8
:1035E00063E6E7028547B397E7001307803EB3879A
:1035F000E702C207C1831307401F9387371FB3C772
:10360000E70201451EA441016FC09FF2BD67938789
:1036100007A6D5B7EFC23FEDB727002083A4878761
:103620000111328983AB040263880B1083C74B00FE
:10363000638407103A269307B00263FFE70E5C42EB
:1036400009479423639AE60E03C60403014799468B
:103650009375F70F63F4C5006316D70CC833D823EE
:103660002205598DF8234207498FE8336205598DA9
:10367000EF10506E83A70B006310F50CB708002005
:103680009387483123A207000357A90023A007000E
:103690009307B002138B483163F0E70AC16A835C79
:1036A00089009387DAFFB7190020014A130C000F35
:1036B0003EC493894976CA8D628483D7AD00637313
:1036C000F40883A74D003EC2637A940192479306A3
:1036D000F00F338787001C236394D70883470B00C0
:1036E00063920720631A0A2083471B00B1C7B717EC
:1036F000002093874776D823954683254900631990
:10370000D72283C75B0005476397E7208850EFF017
:103710009F9283C714032685A18B63880720EFF04F
:103720002FF519A8B385E40005073385E70083C5A5
:10373000A502283DE30EB5F04A85EF20300D056166
:103740006FC03FDE83AD0D001D8C3388FC4042040A
:10375000931C0801418093DC0C01E3900DF6E9BF56
:1037600093062400C206C182E3E886FC83D5AD003F
:10377000130614006358B60218339305400363869A
:10378000B70E63E8F50285456389B704638E0710B9
:103790000D466380C70C130630036381C70C7D5D43
:1037A000814A89A003A70D00630707205843182307
:1037B000E9B713066003638CC70C63E3C70C1306F9
:1037C000A003638DC70C1306B003E39AC7FC9147AF
:1037D000E314F7F6914A154D31A09147E31EF7F433
:1037E000914A194DA2473A94E3C887F43384E6001E
:1037F00042044180638D0A0A02CE9D4763FAA70105
:10380000B7E700001385074836C6EF90E004B246DC
:103810003307AB01182341EF13970A0141833A861E
:103820006C086E853AC6EF2070423247E316A7F067
:1038300011476392EA0A7245EF10D0512ACEB307BE
:10384000AB01054798A3F2470A0D4E9D2320FD00CA
:10385000B9A8E3F3E7EE1D4D914A69B79147E31D1F
:10386000F7EC914A0D4DBDBF01478547E316F7ECD4
:103870009307000FE312FCEC854A014DA5B7014701
:103880008547E31BF7EA854A054DA9BF01479147E4
:10389000E314F7EA914A094DB1B701479147E31D97
:1038A000F7E8914A114D3DBF13140601418083D7BB
:1038B000AD00E36BF4E01D8C3388FC404204931CA4
:1038C0000801418093DC0C01E37894E783AD0D009F
:1038D000E3990DDE95B50547E390EAE68347C1011C
:1038E0003ECEB1BF83A7090023000B000547638FBD
:1038F000E70009476398E700014A930CC006130CE0
:10390000C00255BB0D47E39FE7DC054A930CC00E90
:10391000130CC0064DB3F51793F7F70F0947E36D86
:10392000F7E08850EFF02FF12685EFF08FD729B51B
:103930009946631FD70203C75B0089469307D7FFE9
:1039400093F7F70F63F5F6008547E317F7DE885026
:10395000B145EFF0AFB99386418413864184268543
:1039600093854184EF20A03B2685EFF05FBCE9B34F
:103970000946E313C7DC03C75B00E31FD7DA03473D
:103980002B00E30B07DA805088472EC22314040073
:10399000EF10503C924508CC268598399C29220787
:1039A0005D8FBC29C2075D8FBC39E207D98F5CCC23
:1039B000EFF03FA251B313074003E387E7EA6360E8
:1039C000F7020547E38AE7D6E38007EE0D47E38574
:1039D000E7D613073003E381E7D60147C9B31307DE
:1039E0006003E385E7EAE3ECE7E81307A003E38677
:1039F000E7EA1306B0030147C9BBEFC23FB041116C
:103A000011E937E500001305C54CEF80F064410172
:103A10006FC01FB20051AA897DD85830A147E31862
:103A2000F7FE98415C4CE314F7FEB1452285EFF0B8
:103A3000EFAB9306E1001146A2854E85EFF0EFF45F
:103A4000AA8421CD03294500288791461309090F2F
:103A500013062003CA85EFF00FAF2A8A6887484C07
:103A6000EF10502F2A86CA855285EFF00FB62686B2
:103A7000CA856887EFF0EFBB370500200325C53006
:103A8000938741844E879306300413868184A685EC
:103A9000EF5050452685EF2060577C201307F00F2C
:103AA0006384E70085077CA0D1471EA48DB7EFC2D1
:103AB000FFA404514111AA8995452685EFF00FA373
:103AC0009306E1000D46A6854E85EFF00FEC7D5480
:103AD00059C140412A8928871304040F89461306D7
:103AE0009003A285EFF02FA603D68902A2856887EE
:103AF000EFF0EFA08D4613067003A2856887EFF004
:103B00008FA46887014A938A01840D4BB3874A01C9
:103B100090232887A285050AEFF0CFA76887E317CF
:103B20006AFF03A64902A285EFF0CFDAA2854A8692
:103B30006887EFF00FB0B707002003A5C7304E87A6
:103B40009306300413868401CA85EF50504A2A84B4
:103B50004A85EF20A04BFC201307F00F6384E70099
:103B60008507FCA0FC2025476363F7021307007D4F
:103B7000B387E702C207C1831307401F9387371F2C
:103B8000B3C7E70222859EA441016FC07F9A956763
:103B9000938707E2D5B705C11C51014591CFDC33AE
:103BA000294705456386E7001385C7FF13352500C0
:103BB0001375F50F828001458280EFC23F9400515A
:103BC000411169C05C30DDCF1C4C232E0400232C36
:103BD00004002320040223220402232804022326B3
:103BE0000402232404022317040023280400231AB8
:103BF0000400AA843EC6EFF01FFA814559C522850C
:103C0000EFF0CF8E9306A1001D46A2852685EFF02A
:103C1000CFD72A8929C983294500288591469389C8
:103C2000090F13066003CE85EFF0EF912A8A6885AD
:103C30003245EF1030122A86CE855285EFF0EF988C
:103C40004A86CE856885EFF0CF9EB707002003A592
:103C5000C7302687930630047000CA85EF5030398C
:103C60004A85EF20A03A93864184138641842685B5
:103C700093854184EF20A00A5C2089C7EFF0EFCC48
:103C80002302040041016FC0BF8A2285EFF00F8636
:103C9000E5B7EFC25F8819E937E500001305C54CA9
:103CA000EF80903B415422856FC03F8983471503C5
:103CB000AA84858B91E737E5000013050551CDB740
:103CC0001A359307F0230329050263E4E7007D54C6
:103CD000D9BF631F090213054003EF10B0532A89AF
:103CE0007DD588D01306400381454A85EFC0BF8546
:103CF000EFF00FAD2A8461FD85472302F90083C7E9
:103D00001403918B81EF89454A85EFE03FFE61BF47
:103D100083474900E1DBEFF04FC3E9B72685EFF0B9
:103D20001F812A8449D12685EFF03FE94DB7EFC2C4
:103D30000FFC83A48191096A41118549130A0A7114
:103D4000938A0184370B002081E441016FC0AFFDED
:103D5000805015C0583005C3562885C23E288507B7
:103D6000C207C1833EA8639AF6002685EFF0FFE400
:103D70002685EFF01FF28440C1BF1E286389070E1D
:103D80009386F7FF16A86394370FA947E3E5E7FE8C
:103D90009307204333D7E700058B71DF91452285D8
:103DA000EFE0DFF49306E1000D46A2852685EFF0F3
:103DB000CFBD2A8C25CD03294500288789461309C4
:103DC000090F13069003CA85EFE0FFF79234CA8506
:103DD0006887EFE0DFF28D4613067003CA856887B7
:103DE000EFE07FF66887814C0D4DB3879A019023F1
:103DF0002887CA85850CEFE0FFF96887E397ACFF59
:103E0000D050CA85EFF00FAD6286CA856887EFF0A3
:103E10004F820325CB302687930630041386818496
:103E2000E285EF50D01C6285EF20401E7C201307F6
:103E3000F00F6384E70085077CA07820A546D28731
:103E400063E8E6009307803EB307F702C207C18329
:103E50001307401F9387371FB3C7E7023A281EA4F2
:103E60005E28998FE3D9F9F085871EA829B77E24AB
:103E7000E38307F09386F7FF76A4E39E37EF93770B
:103E8000B70F63853701A947E317F7EE2685EFF0F3
:103E90001FC25E243A28998FE3DFF9EC85877EA460
:103EA000D9BDEFC2AFE503A4819185443149994959
:103EB000214A8D4A154B19E06FC08FE71C5091C7FE
:103EC0009A2763F6E4007D179AA70040EDB7E31E3A
:103ED00097FED83323940700630427016316370144
:103EE0002285EFF0CFE4D5B7631F9700FC2322852E
:103EF0006365FB00EFF0EFCDC9BFEFF01FCC22856B
:103F0000EFF03FD9D9B7631C4701FC23228563E555
:103F1000F400EFE0FFF555BFEFE0BFF87DB7E31623
:103F200057FBFC232285E3EEF4FAEFF0EFB971BF03
:103F3000EFC26FDE61473307E502B7170020138930
:103F40004778AA84138447783A990325090009C55C
:103F5000EF20C00B2320090061453385A4021946D8
:103F6000938581832295230A0500231905002324C4
:103F70000500232205003105EF80F0026FC0EFDB62
:103F8000EFC2CFD73719002013074978814F014F6F
:103F9000814E294E2948A94429448147130949786B
:103FA000A948854203434701631A14036307030CBE
:103FB00011C98323050054436396D30079C614477F
:103FC0006385C60C362B6315530A03230700630C65
:103FD000030863E7D601B68E3E8E19A0E31A03FCF0
:103FE000850793960701C182939706016107C187F0
:103FF000E39A16FB0547FD576399E508328AAA89BB
:1040000063141403638D8406E147B387F402CA97EF
:104010009C4399C737E5000013054553EF80D00353
:104020002685EFF0FFF02684E147B307F402CA9734
:10403000DC2B99C737E500001305C554EF80D0018C
:1040400063890900E147B307F40203A70900CA978F
:10405000D8C3E147B307F4023E992319090023248A
:104060004901A2871DA0E3EDE6F7368F3E888DBF9C
:10407000E3E8F6F7B68FBE84A5B73E8495B763191B
:104080009800F284FD57E31D0EF93E856FC04FCABC
:10409000C28479B7EFC2AFC52A89AE89328A368C1D
:1040A0003A8BBE8BC28AC68C19E537E50000130532
:1040B000C54CEF80607A13060028F1453945EF10B2
:1040C000507FAA847D55D1CCBA24ED4763E8E70040
:1040D00037E5000013054562EF800078C040668533
:1040E000EF10604668A0218168B003470903994733
:1040F0006308F70037E5000013058565EF80C0759C
:104100001946E28513058400EF80E0691946DE85D3
:1041100013052401EF8020691146DA851305E400B8
:10412000EF8060681146D68513058401EF80A06793
:1041300085471CB0A1473CA099475CA00567914703
:104140005CB013076780D2864E86A68523000400E4
:10415000A30104004A85EFE0FFB22685EF10106B43
:1041600001456FC04FBCEFC26FB9411191E937E50E
:1041700000001305C54CEF80206E41016FC04FBB9E
:104180004441AA899C309820A207D98F13070010B8
:104190006391E702D8209947631DF700D830914713
:1041A0006319F700BC30B820A207D98F2147638676
:1041B000E7004E85EF109065C9B72E8411469385B0
:1041C000E4002800EF80205E11469385840168009A
:1041D000EF80605D5C40138A840081C73247638E44
:1041E000E70A814A09490347040399476308F7002E
:1041F00037E5000013058559EF80006622452DCD77
:10420000A285EF0030262DE9A2471307000E93F791
:10421000070F6383E7062286CA852800EFF05FD682
:10422000634C0504E147B307F50237170020130775
:10423000477889461946D2853309F700B107230A22
:10424000D900232489003305F700EF80C055032BE4
:1042500009002319090063010B02056723200900E7
:1042600013070780D2861306A402DA852285EFE0C1
:104270007FA15A85EF109059FC30F820A207D98F02
:1042800013070010638EE70013070020E393E7F2A3
:104290002C002285EFF06FF629BF854A0549A1B7AA
:1042A000E3890AF09306A402894813088100D287A3
:1042B000130744005286B6852285EFF0BFDDD5BDD9
:1042C000EFC26FA59306A5022E8885489387818348
:1042D0001307450013860183B685EFF0BFDB6FC07F
:1042E000CFA5EFC2CFA03714002013044478814437
:1042F000130AB012854A0D4B1149894B114CA9493B
:10430000582819CF3E288507C207C1833EA8636697
:10431000FA00631D57016375F9022685EFF05FC14E
:1043200085046104E39E34FD6FC0EF9F6315670150
:10433000230A8401F5B7E31527FF230A7401CDB7DB
:10434000084493054400EFF0BFF7D9BFEFC20F9BBD
:1043500061473307E6023714002093074478411180
:10436000AA84AE8A13044478BA97D82B854763EAA7
:10437000E70037E500001305855C32C6EF80C04DCD
:104380003246E1453306B6028947138AA402B309CF
:10439000C40003C749011309C60022996312F7023A
:1043A00083D729011307C0116378F7021106B305FB
:1043B000C4002685EFF0DFF001E58D47238AF90080
:1043C000056713070780CA865286D6852685EFE0E3
:1043D0007F8B41016FC0CF951307D010E372F7FEBA
:1043E00011063308C40085489387818313874400EE
:1043F000D2864A86D2852685EFF0DFC975BFEFC227
:10440000EF8F2E8AAA89AA8503250A00B284EF00BD
:104410007005631F050E83270A001307000E415520
:1044200093F6070F638DE60099CB4E86854552853E
:10443000EFF01FB52A8463560500620561856FC0E1
:104440002F8F9307E00763D8A70037E50000130517
:10445000855FEF8060401374F40F61473307E40217
:10446000371900209307497813094978BA97D82B50
:1044700061EF0547D8AB23A43701854AD2854E8525
:10448000EFF01FE409EDE147B307F4020547CA97CF
:10449000D42B6396E60063940A0023990700C5D0E5
:1044A000E146B306D402B307D900D82B854763F29F
:1044B000E702B1060567B707002013070780CA9611
:1044C0001386A902A6854E8523808732EFE08FFBF5
:1044D000BDB7E316F7F6A68937EA000003D7A900AF
:1044E00083D789006319F70083A7090089C71305DB
:1044F0008A60EF80603683C7C90093F7070499EBA1
:1045000083A90900E39C09FC2685EF10B05729A870
:10451000415535B72686930500283945EF10507B65
:10452000AA847D55E38D04F0E147B307F402CA97EE
:10453000884319C1EF10902D61453304A402014551
:10454000229923209900E5BD7D55B9F8814A3DB7F0
:10455000EFB27FFC41112A842E89B28419E537E538
:1045600000001305C54CEF80202F6318090037E5C4
:1045700000001305C55BEF80202E99E437E50000AD
:1045800013058557EF80402D8840A285EF00806D90
:1045900079ED9C401307000E93F6070F639AE6022D
:1045A00085477C849307E0055C859C30340093F755
:1045B000F707DC85BC205C86BC30DC86056713070A
:1045C00007801306A402CA852285EFE0AFEB8DA019
:1045D000584014443D8F758F09CFC2074167C1838E
:1045E000130797EA6387E7005C447155B1C39304EE
:1045F000C400B706002003C60632E145B717002005
:10460000B305B602138747789386063293874778B7
:104610002E97482B854563F0A5020C47639D8500C6
:104620008C4058436399E500CA852285EFF01FD27C
:1046300041016FB09FF0014685452947C82B63FCB7
:10464000A50088476319850003A80400C8436314C4
:10465000A80090A2D1BF05061376F60FE107E31F6D
:10466000E6FC4A86A6852285EFF07FD9D1B79386EE
:104670000183A9B7EFB29FE883598500ED47411147
:104680002A84AE8A328A63F33701F149138989009B
:104690009315090113060028C18113052002EF10AC
:1046A0005021AA8449C13E2563F8270137E500005F
:1046B00013054570EF80401A03294400C0404E8620
:1046C000CA8523005401A300440123020400A3026D
:1046D000040023030400A303040013058400EF80F7
:1046E000800C0347D9008347C900680022075D8F0B
:1046F0008347E900C2075D8F8347F900E207D98F3E
:104700003EC6D52211CD2A8823010400A30104004E
:10471000854701479306F00F7000814526852D23BC
:104720002685EF10B00E41016FB09FE0EFB21FDDA4
:10473000B727002013874787832A8700CD462A841E
:1047400083C40A00BD888A0463F1960432258D462D
:1047500063FDC60254419022A1466318D602484B1D
:104760001307000E9376050F6381E6022E8A83A558
:10477000478793894787FD2109E91A249D4763F6F6
:10478000E7002285EF00906511C52285EF10100823
:104790006FB01FDA1389E400CA852285EF10607FAD
:1047A00079C91E24B3859700C205C181E3EFF5FCEA
:1047B000130600283945EF10D00F2A8979D53A25FC
:1047C000938784006376F7004A85EF10300475BF45
:1047D0004841D6852686EF70107DA6854A85EF1064
:1047E000207C01C937E500001305C569EF80A01AD8
:1047F000E1BFA2854A85EF10504379F52285EF107D
:10480000F0004A84A685228503294400EF106078D1
:104810002DFD5C4003C74901B72500205288D8A769
:1048200003C759019306F00F0146D8B703C76901C2
:10483000938585882285F8A703C77901F8B703C750
:10484000090198AB03C7190198BB03C72901B8AB8D
:1048500003C73901B8BB2300090023010900A301E4
:1048600009007D5798A723850700A3850700014706
:104870008547D92E19BFCA852285EF10607259D19C
:1048800037E500001305056DEF80E010FDBDEFB2C8
:104890009FC813F6F50F8D45EFF0DFDD6FB0FFC950
:1048A000EFB27FC713F6F50FAD45EFF0BFDC6FB089
:1048B000DFC883471503858B85C75841AA85014505
:1048C00015C3B727002083A787880545630CF70029
:1048D000EFB27FC43E8579263335A0006FB0FFC5A7
:1048E00001458280828083A7819185E703A741915A
:1048F00019CF834617031546958A639AC600544319
:1049000099C610219306F0076303D600BA873E8547
:10491000828083C6170313F716000DC313D7260032
:10492000058B09CFD84319CB10418C47318F6D8F40
:1049300079DF898A81E6D847E30BE6FC9C4375B7AB
:10494000EFB2DFBB40419147AA84834A040013D7EA
:104950004A006308F7002685EF10406B01456FB0F1
:104960003FBD3C3028202E8AA2075D8DEF00B03D70
:1049700093FAFA009E248A0A93990A0193D90901AD
:104980002A896376F500AA852685EF10B005BE2436
:10499000E3E337FD9E24E3E027FDCD47E3FD37FB4E
:1049A00018381C28372B002022075D8F3C2813065F
:1049B0004B8713094B87C2075D8F3C38E207D98FBD
:1049C0005CCA5434582493F7070FA206D98E782472
:1049D0004207D98E78346207558F18CA1307000E24
:1049E000639AE70883471A03858B99E71834C5470C
:1049F000630DF70A814929A083274A00E5DBD289A4
:104A00000325090101CDD285B12C31F58327090198
:104A10001307000E93F7070FE38FE7F2E38D09F218
:104A20007C20783093F7F7032207D98F91C726852A
:104A30005129AA8405D54041232A3B8723224901D5
:104A4000232489001C20D6852685BD8B8A07231642
:104A5000F900EF10E0541C3419476386E708454716
:104A60006382E70605476395E708D2852685EFF060
:104A7000FFCBA9A85285EFF0DFE30DE5034749011D
:104A80009307F007E304F7F683A98191E38009F621
:104A900063153A0183A90900D5BF4E85EFF07FE188
:104AA00075D9B9BFE31D0AF491B7330754013C33FC
:104AB00034231167A207D58F13070740E39CE7F261
:104AC000D289A9BFD2852685EF40B01D232A0B8647
:104AD00023220900232409002316090023280900A2
:104AE000232A0900A5BDD2852685EF20905FF9BF56
:104AF00003254901CE85BD220DE183274901130716
:104B0000000E93F7070F638AE700D6852685EF101E
:104B1000204E89452685EFF09FD72685EF10004F60
:104B200075B7EFB2DF9C3A8A78253E8B85474111F5
:104B3000AA84AE8A3289B68BC2896308F70037E54A
:104B4000000013050573EF7030516305090CD14562
:104B50002685EF10004409C5795541016FB0BF9C0F
:104B6000BA24CD47C04063E8E70037E500001305ED
:104B7000C573EF70704E23047401A304640183476E
:104B800009001CA8834719001CB8834729003CA8CA
:104B900083473900A3004401370A00203CB893073B
:104BA00050041CA08A24130A2A32EF00D01928A02E
:104BB000218128B003550A0023030400A303040045
:104BC000EF00701883570A0048A02181850748B07C
:104BD0002310FA00639D0A0283A7418413D787003C
:104BE0005CA458B413D70701E18378A47CB42305EF
:104BF0000400A305040083D78902A1C39A2463FE9D
:104C0000E7024A86CE852685EF00E075B9B783A70F
:104C10000A00E9B7BA24CD47E3F0E7F4D44013091A
:104C2000C100983A9C2A22075D8FBC2AC2075D8F7B
:104C3000BC3AE207D98F3EC67DBF83A749014A86A9
:104C4000A6854E85829711BFEFB2FF8C01CA89C538
:104C500083A805006394080093054800EFF07FECFB
:104C60006FB0BF8D9306F5FF7557AA876366D702AD
:104C700003C715030145098B0DC3D841630FF70026
:104C800094453D8F758F11EB93C6F6FF33F5F60013
:104C9000158D13351500828005458280EFB2BF87E0
:104CA000B707002093878732984341112A84631BFA
:104CB000A700184198C3A2851545EF0090794101DE
:104CC0006FB0BF8789E937F50000130505882EC648
:104CD000EF709038B2451C409CC1F1BFEFB21F820B
:104CE000AA842E8A6398A50037F500001305C589AC
:104CF000EF709036630C0A0083270A0063889700E0
:104D000037F500001305858AEF70103503A94400BC
:104D10000144032549005C315821A207D98F85EF52
:104D200018311C21514622075D8F3C219385840058
:104D3000C2075D8F3C31E207D98FDCC0EF70B0262F
:104D400085454A85EFF0DFB54A85EF1080522A8409
:104D50004A85EF10A02B03A94400C16A37FB00006D
:104D6000631A09022685D285B7040020EFF01FF3ED
:104D700083D744329384443263F8870037F50000C8
:104D80001305C58DEF70502D9E202285818F9EA02A
:104D90006FB00FFA032749004A851C338349070087
:104DA000A207B3E7370183492700C209B3E7F90037
:104DB00083493700E209B3E9F900EF10804B2A94E8
:104DC000634654011305CB8BEF7010294A854204CA
:104DD0004180EF10A0234E8961B7EFB22FF22A84F1
:104DE0002E8A8144B70A0020854983A78A32014967
:104DF00081450146014581EF01C5EFF03FEEAA94E0
:104E000063D44401E3C329FF26856FB06FF25434A5
:104E10005824A206D98E78244207D98E78346207A6
:104E2000558FD44B6398E60214381828A206D98E01
:104E300038284207D98E38386207558F944F639BC4
:104E4000E600583003484400D6272207336707019D
:104E5000638AE600050909C5F43F783D6364D7001D
:104E6000B2853E85984311C33E86BA8769B7EFB2D3
:104E70008FEA2A8419E537F5000013050590EF70D5
:104E8000B01D484819C1EF106018A2851945EF0000
:104E9000505C6FB08FEAEFB20FE8B707002003A5B0
:104EA0008732014419E16FB04FE97C3D044191C75D
:104EB000FD177CBD2A842685F5B7A285EFF01FE299
:104EC0002285CDBFEFB2AFE244415147AA899C2071
:104ED000BD8B8A07639AE70AFC30E820A2075D8D44
:104EE0009D25BC302A8AA820A2075D8DA92D9C2073
:104EF000BD8B8A07636AF508330BF5404E85EF10CA
:104F00004037B70A002083D74A32420B2944AA9778
:104F1000135B0B01AA8C938A4A32634DF404B70BDE
:104F2000002003A48B32938B8B3225E41545EF00D0
:104F3000304F2A8401EDE6852685EFF01FEA6345B0
:104F400095051545EF00D04D2A841DCD714681454C
:104F500013054400EFB02FDFBD477CBC83A70B00D7
:104F600023A08B001CC05146A68513058400EF705A
:104F7000900389A6AA852685EFF03FE611C583D761
:104F80000A00E697E35DF4F84E85EF10200801492A
:104F9000D9ACD834DC2422075D8FFC24C2075D8F96
:104FA000FC34E207D98F58486316F70298389C28DA
:104FB00022075D8FBC28C2075D8FBC38E207D98FFE
:104FC000184C6319F700DC30D4205A24A207D58F7F
:104FD0006300F72C004091BF5443D03203C8460011
:104FE0002206336606016375C5069356870098A0AE
:104FF00094B0935607016183B4A0B8B06305090467
:1050000003477900834669002207558F6360E526D0
:10501000636EF62493D7890023003901A300F900B9
:1050200093D7090193D989012301F900A30139011B
:10503000631AE50A63050D007C2C858B99C3631701
:105040000C0A014C01A26363F62223223401DDB76E
:10505000630EC520F83203C86600220733670701D4
:105060006366E520630C0900034779000348690083
:105070002207336707016303E600014C9032982250
:1050800036892206598EB8224207598EB8326207F5
:10509000518F6DAC8347790003476900A207D98F10
:1050A0006378F50037E500001305857BEF70C07A63
:1050B00093D7890023003901A300F90093D7090190
:1050C00093D989012301F900A3013901034779002C
:1050D000DC3003466900D4202207A207518FD58F08
:1050E000E30AF7F4014CE3190DF4A1BF5C40B1DB16
:1050F000D443DC32D822A207D98FA1F798309C2064
:1051000022075D8FBC20C2075D8FBC30E207D98FBC
:10511000E1E36398960037F5000013050581EF7011
:10512000A07398309C2022075D8FBC20C2075D8F42
:10513000BC30E207D98F99C737F500001305058207
:10514000EF70807183D70A00BE9C23909A01631987
:105150000D007C2C5A9A231E440193E717007CAC67
:10516000014963020C105C408359C401514603A9F4
:105170004700D1099305840083471900834409003F
:105180004A85A207C58F83442900C20993D9090122
:10519000C204C58F83443900E204DD8CEF70A06047
:1051A0004E8555262301A9002181A301A9002303CF
:1051B0000900A303090023050900A3050900032929
:1051C000440095EC83A50B006318B4068145B5A097
:1051D000D043F830E8205C324C222207A207498FE6
:1051E000CD8FE310F7E618321C22B28422075D8FC0
:1051F0003C22C2075D8F3C32E207D98F11BFD145F7
:10520000268583A94400EF00B059A6854A85EF1092
:10521000200A83C7190083C40900A207C58F83C46D
:105220002900C204C58F83C43900E204DD8C51BF5C
:105230009C416304F400BE85E5FD2285EFF01FA6C6
:105240004A85EF10000383D70A002A8463F8A70079
:1052500037F5000013054584EF70006003D50A00A0
:10526000018D2390AA004A856FB0EFAB5C40E39DAF
:1052700007D083A70B006308F40037F5000013057F
:105280000586EF70605D81452285EFF03FA1EDB9A5
:10529000FC30E8200969A2075D8D75247D193375FE
:1052A00025014205418119E56A24712C33752501D8
:1052B000E31B05CA03CD64004E0A135A3A01137D5D
:1052C0000D020E0A631C0D00B3076A01C207C183F9
:1052D000E3EE47F941672D17E36AF7F883A4490025
:1052E000BC30A820A2075D8DB92C03C90400137936
:1052F000F9000A09E36C25F7FC3033052541131941
:105300000501E820A207135909015D8D2D2C4E05DA
:1053100083A449004D810E0593578500DCB0B30787
:10532000A900C207C18313D7870023800400A3808C
:10533000040023810400A3810400C8A0FCA0F8B0ED
:10534000E3E6A7F24C40054C01492E87E31607C857
:10535000E31209D4E38B05CE37E500001305857D04
:10536000EF70804FDDB1EFB20F989E352147832C4F
:105370004500B117B3C7E702011132C85147C20750
:10538000C1833EC483C70C00BD8B8A07639DE700C1
:105390003A25CD472A8463EAE70037E50000130584
:1053A000C576EF70604B6955B1A083C77C0003C51B
:1053B0006C002E8DA2075D8D79220967698F3AC630
:1053C0002247062489670E074207FD174183B37BF6
:1053D000F500B1143AC237570000C20BC2041307DC
:1053E000E7E693DB0B01C180D14901493ACA3ECCC3
:1053F00089E4014505616FB0CF929247835A41001D
:1054000063F3F400A68A13060028D1453945C20A81
:10541000EF00304A93DA0A012A8A2DC93A25CD478E
:1054200063E8E700B7E7000013858778EF70C042B4
:1054300003254A005146E685EF70E036032C4A000A
:10544000568B630B0B083E243389374142091359AD
:10545000090163F83701B7E700001385877AEF7019
:10546000A03FDA8763736901CA871399070113594B
:1054700009016315090000408149E1B71945EF00B2
:10548000207AAA8D11E55285EF0050387D559DB7E1
:105490005840AA86CA874E9713061004CA8501454C
:1054A000EF00302C11E5EE851945EF00807AE1BF61
:1054B0002ACE2285EF00105DD247F245330B2B41F7
:1054C000420B23AA8D0023A8FD005285135B0B011C
:1054D000EF00105EE3110BFAE247CA99C20933F5F7
:1054E000FB0083578D0293D90901B51763D4F400EB
:1054F000B24799C389675D8DB9202303AC00218130
:10550000A303AC0013854A01420541812D2883275E
:105510004D0142462301AC002181A301AC00D2859C
:1055200023050C00A3050C006A8582975285EF00C5
:10553000F02DA247B3845441C204BE9BC20BC1806C
:1055400093DB0B0175B59317850021815D8D4205B5
:10555000418182801357850193178501D98FB70642
:10556000FF0013178500758FD98F4167130707F068
:105570002181798D5D8D8280411123170100937601
:10558000150099C66356B0001C21FD150505DC8782
:1055900081470547634EB7026394E5001821588799
:1055A000288741677D173E9593570501798DAA9706
:1055B00013D50701F98F3E9581CA93178500218184
:1055C0007D8F1375F50F598D420541814101828010
:1055D00009050356E5FFF915B2976DBFEFA21FF25B
:1055E0004169AA84814901447D1995E0638B0900D2
:1055F0004167931784007D172180F98F1374F40F8E
:105600005D8C1345F4FF420541816FA07FF2AE240B
:10561000C840EFF07FF62A949357040133742401B5
:105620003E94BE24858B99CB931784002180B3F7D9
:1056300027011374F40F93C919005D8C844075B76A
:10564000EFA27FEDEF40C0382128652BEF00006D01
:10565000EF30B063EF005070EF30705A6FA0FFED85
:10566000EFA27FEBB72700209387F788F19B3707DE
:105670000020232AF7320D679306078094C337066C
:105680000020BE96232CD632B73600283E972382C0
:105690000700938606802320D780370500208546A3
:1056A0002302D78013050533370700202326F7325E
:1056B000EF40803419C537F50000130545A2EF709F
:1056C000A0196FA09FE7630D051AEFA23FE3937740
:1056D00035002A8489CF37F500001305C590EF7097
:1056E000A017EF40C02FEF4060306FA07FE4370A73
:1056F000002083274A33930485FF130A4A3363EC5F
:10570000F400B709002003A789339307C5009389E4
:1057100089336377F70037F5000013050593C1B7A8
:105720003709002013050933EF40802F8347C4FF5A
:10573000CA8A81EF37F500001305C594EF70C011D8
:1057400013050933EF40E03169BF035784FF8D67CC
:105750009387078063EAE7028356A4FF63E6D702D4
:1057600003260A00B387C440C207C1836386D700FB
:10577000B2969622639AF60083A609003297630ECA
:10578000D7003A23630BF70037F500001305459760
:10579000EF70800C13850A3375B737090020832713
:1057A000C932230E04FE1309C93263F4F400232026
:1057B000990063F8C40037F500001305859AEF706F
:1057C000A00983A7090063E8F40037F5000013057A
:1057D000059CEF7060088347C4FF99C737F5000048
:1057E0001305C59DEF704007035784FF8D679387AE
:1057F000078063F8E70037F500001305859FEF7019
:10580000A00503270A00835784FFBA97638BF4022D
:10581000D42385EA83A609006385D702832609007D
:105820006394D700232099009623231CD4FE9E2343
:105830008D66938606806386D700BA97B386E44068
:10584000B6A38356A4FFB307D7006386F402D02320
:105850001DE2032609006394C4002320F9000356C7
:1058600084FF92A3035684FF8D67938707806304A8
:10587000F600329736A313850A33EF40801EB5B584
:105880008280EFA2BFC71384350071984204418023
:10589000AD47AA8463F987008D679387078063F516
:1058A00087008144B1A03144E36DB4FE370A002083
:1058B00083274A33130A4A3363E8F400B70700200A
:1058C00083A7873363E8F40037F50000130505AEBE
:1058D000EF60907883270A0063E8F4003707002020
:1058E0000327873363E9E400EF40600FEF400010C7
:1058F00026856FA0FFC3138984FF83D984FF3309F2
:10590000F940420913590901E119B3892941C20932
:1059100093D9090163F9890037F50000130585AFB4
:10592000EF609073BDBFE38589FCB70A0020138543
:105930000A33EF40E00E03D784FF032B0A003A9BA3
:1059400083474B00B5E78D67938707806318F7009F
:1059500037F50000130585B1EF60107093078900DB
:105960003E94B70700209387C7329843420483567A
:105970000B0041806316670103270A00229798C332
:1059800083270A003387870016A323020700231109
:105990002701239C84FE16230D6713070780638469
:1059A000E600B697A2A313850A33EF40800B89B7B0
:1059B00093074401E3E9F9FE930789003E948D675C
:1059C00042049387078041806318F70037F5000091
:1059D000130585B1EF605068B706002003270A0061
:1059E0009386C6329042B307870063F3C7009CC218
:1059F0002382070083D684FF2391270196A3239C4B
:105A000084FE96238D6793870780E38EF6F836979A
:105A100022A351BFEFA29FAE2DC913043500719888
:105A200042044180AD4763FB87008D679387078001
:105A3000814463F6870026856FA09FAF314481447F
:105A4000E36BA4FE370A002013050A33EF30507DC4
:105A5000B7070020B70A002083A64A3303A9C7323C
:105A6000138BC7328D673309D9404209938707806A
:105A700013590901938A4A33B38587406155636896
:105A8000B90013050A33EF30D07D81446DB7B3847C
:105A90002601D82092206DE3330725413297636DAC
:105AA000870C930644016363D70C93098400CA9959
:105AB000C20993D909016398F90037F5000013056D
:105AC00085B1EF60705983A70A003387370123023D
:105AD000070096202311270116A385462390340141
